:100000000C9434000C9449000C9449000C94490061
:100010000C9449000C9449000C9449000C9449003C
:100020000C9449000C9449000C9449000C9449002C
:100030000C9449000C9449000C9449000C9449001C
:100040000C9449000C9449000C9449000C9449000C
:100050000C9449000C9449000C9449000C944900FC
:100060000C9449000C94490011241FBECFEFD8E036
:10007000DEBFCDBF11E0A0E0B1E0E6E6F2E002C0F5
:1000800005900D92AE31B107D9F70E940A010C9488
:1000900031010C9400009BB19F70282F207F922B80
:1000A0009BB99BB19E7F9BB99BB192609BB935E098
:1000B0003A95F1F700009BB19D7F9BB9EFE1F3E02A
:1000C0003197F1F700C000002BB1F0E18F9FC00124
:1000D0001124922F9F70892B8BB98BB182608BB9C1
:1000E00035E03A95F1F700008BB18D7F8BB98FE346
:1000F0009FE10197F1F700C0000008958FEF8AB9E2
:100100008FE59AEE0197F1F700C0000083E30E94AB
:100110004B0082E30E944B0088E20E944B0082E089
:100120000E944B008CE00E944B0086E00E944B0036
:1001300081E00E944B008FE39FE10197F1F700C03F
:100140000000089581E00E944B008FE39FE101973A
:10015000F1F700C0000080E80E944B000895FC0108
:1001600060E070E0DF01A60FB71F9C919923A9F111
:100170008BB18F70907F982B9BB98BB181608BB9BD
:100180008BB182608BB985E08A95F1F700008BB165
:100190008D7F8BB98FE193E00197F1F700C00000EC
:1001A0004BB19C9180E1989F90011124942F9F70F6
:1001B000292B2BB99BB192609BB995E09A95F1F7E9
:1001C00000009BB19D7F9BB98FE39FE10197F1F701
:1001D00000C000006F5F7F4FC5CF0895CF93DF93BE
:1001E000EA01811108C0603130F4862F8F70806879
:1001F0000E944B0009C0813039F4603128F4862F09
:100200008F70806C0E944B00CE010E94AF00DF9186
:10021000CF9108950E947E0080E091E00E94AF009F
:1002200040E051E060E080E00E94EE002FEF89E6C0
:1002300098E1215080409040E1F700C0000041E18A
:1002400051E060E081E00E94EE002FEF89E698E146
:10025000215080409040E1F700C000000E94A200C1
:06026000DFCFF894FFCF90
:10026600466168696D205269617A20496D72616ED6
:0E0276000061726520467269656E6473000057
:00000001FF
