:100000000C9434000C943E000C943E000C943E0082
:100010000C943E000C943E000C943E000C943E0068
:100020000C943E000C943E000C943E000C943E0058
:100030000C943E000C943E000C943E000C943E0048
:100040000C943E000C943E000C943E000C943E0038
:100050000C943E000C943E000C943E000C943E0028
:100060000C943E000C943E0011241FBECFEFD8E04C
:10007000DEBFCDBF0E9440000C9461000C940000D4
:1000800084B18B6184B91A9B15C085B18F7E85B907
:1000900085B18C7F85B985B1886085B92FE78AE104
:1000A00096E0215080409040E1F700C0000085B10B
:1000B000877F85B985B1836085B985B1806185B950
:0600C000E2CFF894FFCF2F
:00000001FF
