S01F000070726163746963655F30335F736572766F5F69725F75732E73726563E9
S11300000C9434000C9449000C9449000C9449005D
S11300100C9449000C9449000C9449000C94490038
S11300200C9449000C9449000C9449000C94490028
S11300300C9449000C9449000C9449000C94490018
S11300400C9449000C9449000C9449000C94490008
S11300500C9449000C9449000C9449000C944900F8
S11300600C9449000C94490011241FBECFEFD8E032
S1130070DEBFCDBF11E0A0E0B1E0E2EFF0E002C0EE
S113008005900D92A231B107D9F70E9465000C9436
S113009077000C94000014B884B1806484B984B1EE
S11300A0806184B984B18F7D84B9089520E030E003
S11300B0223331054CF485B1806485B985B18F7BD9
S11300C085B92F5F3F4FF4CF08950E944B00C0E0E5
S11300D0D0E0C930D105D8F7FE01EE0FFF1FE05084
S11300E0FF4F808191810E9456002196F2CFF894AF
S10500F0FFCF3C
S11300F200002D005A008700B400E1000E013B010C
S105010268018E
S9030000FC
