S01300004C61625F5461736B5F30322E737265634F
S11300000C9434000C943E000C945F000C943E005D
S11300100C943E000C943E000C943E000C943E0064
S11300200C943E000C943E000C943E000C943E0054
S11300300C943E000C943E000C943E000C943E0044
S11300400C943E000C943E000C943E000C943E0034
S11300500C943E000C943E000C943E000C943E0024
S11300600C943E000C943E0011241FBECFEFD8E048
S1130070DEBFCDBF0E9440000C946E000C940000C3
S113008088E084B980E586BD14BC85E085BD81E047
S113009080936E008AB180688AB98AB1877F8AB9F1
S11300A08BB188608BB9E9E6F0E080818A60808357
S11300B08DB382608DBB789486B585B9FDCF1F92D0
S11300C00F920FB60F9211248F938BB180588BB976
S11300D08F910F900FBE0F901F901895F894FFCF3B
S9030000FC
