:100000000C9434000C9449000C9449000C94490061
:100010000C9449000C9449000C9449000C9449003C
:100020000C9449000C9449000C9449000C9449002C
:100030000C9449000C9449000C9449000C9449001C
:100040000C9449000C9449000C9449000C9449000C
:100050000C9449000C9449000C9449000C944900FC
:100060000C9449000C94490011241FBECFEFD8E036
:10007000DEBFCDBF11E0A0E0B1E0E8E8F3E002C0F0
:1000800005900D92AA35B107D9F70E944A010C9448
:10009000C2010C9400009BB19F70282F207F922BEF
:1000A0009BB99BB19E7F9BB99BB192609BB935E098
:1000B0003A95F1F700009BB19D7F9BB9EFE1F3E02A
:1000C0003197F1F700C000002BB1F0E18F9FC00124
:1000D0001124922F9F70892B8BB98BB182608BB9C1
:1000E00035E03A95F1F700008BB18D7F8BB98FE346
:1000F0009FE10197F1F700C0000008958FEF8AB9E2
:100100008FE59AEE0197F1F700C0000083E30E94AB
:100110004B0082E30E944B0088E20E944B0082E089
:100120000E944B008CE00E944B0086E00E944B0036
:1001300081E00E944B008FE39FE10197F1F700C03F
:100140000000089581E00E944B008FE39FE101973A
:10015000F1F700C0000080E80E944B000895FC0108
:1001600060E070E0DF01A60FB71F9C919923A9F111
:100170008BB18F70907F982B9BB98BB181608BB9BD
:100180008BB182608BB985E08A95F1F700008BB165
:100190008D7F8BB98FE193E00197F1F700C00000EC
:1001A0004BB19C9180E1989F90011124942F9F70F6
:1001B000292B2BB99BB192609BB995E09A95F1F7E9
:1001C00000009BB19D7F9BB98FE39FE10197F1F701
:1001D00000C000006F5F7F4FC5CF0895CF93DF93BE
:1001E000EA01811108C0603130F4862F8F70806879
:1001F0000E944B0009C0813039F4603128F4862F09
:100200008F70806C0E944B00CE010E94AF00DF9186
:10021000CF910895E0E8F0E0808182688083E1E892
:10022000F0E080818A6180838FE39CE9909387006E
:10023000809386008FEE9AE09093890080938800E7
:100240002FEF89E698E1215080409040E1F700C00F
:1002500000000895E0E8F0E0808182688083E1E8B2
:10026000F0E080818A6180838FE39CE9909387002E
:100270008093860087EC90E09093890080938800BB
:100280002FEF89E698E1215080409040E1F700C0CF
:10029000000008950E947E0017B886B183708130F7
:1002A000F9F030F08230C9F1833009F453C0F5CF52
:1002B00040E051E060E080E00E94EE004BE051E061
:1002C00060E081E00E94EE002FEF83ED90E321508B
:1002D00080409040E1F700C000000E94A200DDCF06
:1002E0000E94A20045E151E060E080E00E94EE0043
:1002F00043E251E060E081E00E94EE0084B1826060
:1003000084B90E940A012FEF83ED90E321508040D1
:100310009040E1F700C00000C0CF0E94A2004EE272
:1003200051E060E080E00E94EE0049E351E060E0CF
:1003300081E00E94EE0084B1826084B90E942A01AB
:100340002FEF83ED90E3215080409040E1F700C013
:100350000000A3CF0E94A2004AE451E060E080E0E8
:100360000E94EE0045E551E060E081E00E94EE0071
:100370002FEF83ED90E3215080409040E1F700C0E3
:0803800000008BCFF894FFCFC1
:1003880057617A6972697374616E00436865636B5B
:10039800706F737400596F7572204964656E746963
:1003A800747900697320436C6561726564005468F0
:1003B800616E6B7320666F7200796F757220636F60
:1003C8006F7065726174696F6E00456E6A6F79202F
:0A03D800796F7572005472697000AD
:00000001FF
