:100000000C9434000C943E000C943E000C943E0082
:100010000C943E000C943E000C943E000C943E0068
:100020000C943E000C943E000C943E000C943E0058
:100030000C943E000C943E000C9453000C943E0033
:100040000C943E000C943E000C943E000C943E0038
:100050000C943E000C943E000C943E000C943E0028
:100060000C943E000C943E0011241FBECFEFD8E04C
:10007000DEBFCDBF0E9440000C9466000C940000CF
:1000800084B1806284B985E387BD16BC82E084BDFB
:1000900095E095BD80936E00789417B88FEF8AB97C
:1000A00086B18BB9FDCF1F920F920FB60F9211241C
:1000B0008F939F9316BC95B180E2892785B99F9154
:1000C0008F910F900FBE0F901F901895F894FFCF4F
:00000001FF
