S00B00004C43442E7372656346
S11300000C9434000C9449000C9449000C9449005D
S11300100C9449000C9449000C9449000C94490038
S11300200C9449000C9449000C9449000C94490028
S11300300C9449000C9449000C9449000C94490018
S11300400C9449000C9449000C9449000C94490008
S11300500C9449000C9449000C9449000C944900F8
S11300600C9449000C94490011241FBECFEFD8E032
S1130070DEBFCDBF11E0A0E0B1E0E8E5F1E002C0F1
S113008005900D92A632B107D9F70E9498000C94FE
S1130090AA000C9400008BB985B1846085B985B140
S11300A08C7F85B98FE19EE40197F1F700C00000D1
S11300B085B18B7F85B98FE19EE40197F1F700C08C
S11300C0000008958FEF8AB984B1876084B988E30A
S11300D00E944B0081E00E944B008EE00E944B0086
S11300E080E80E944B0008958BB985B1856085B97D
S11300F085B18D7F85B98FE19EE40197F1F700C04A
S1130100000085B18B7F85B98FE19EE40197F1F7FB
S113011000C000000895CF93DF93EC018881882309
S113012021F00E9474002196F9CFDF91CF910895B8
S11301300E94620080E80E944B0080E091E00E94EF
S11301408B008FE19EE40197F1F700C0000080E08E
S10B015090E00895F894FFCF3C
S1130158466168696D2053686168202C20697320A2
S11301687468652073747564656E74206F66204EB8
S1090178414D414C000062
S9030000FC
