S01500004C61625F30385F61736B5F30342E73726563D8
S11300000C9434000C943E000C943E000C943E007E
S11300100C943E000C943E000C943E000C943E0064
S11300200C943E000C943E000C943E000C943E0054
S11300300C943E000C943E000C943E000C943E0044
S11300400C943E000C943E000C943E000C943E0034
S11300500C943E000C943E000C943E000C943E0024
S11300600C943E000C943E0011241FBECFEFD8E048
S1130070DEBFCDBF0E9449000C9452000C940000D6
S113008016BC81E085BDA89BFECF14BC81E085BB76
S1130090089582E28AB90E9440009BB182E08927D8
S10B00A08BB9F9CFF894FFCFEE
S9030000FC
