S013000070726163746963655F30332E7372656304
S11300000C9434000C943E000C943E000C943E007E
S11300100C943E000C943E000C943E000C943E0064
S11300200C943E000C943E000C943E000C943E0054
S11300300C943E000C943E000C943E000C943E0044
S11300400C943E000C943E000C943E000C943E0034
S11300500C943E000C943E000C943E000C943E0024
S11300600C943E000C943E0011241FBECFEFD8E048
S1130070DEBFCDBF0E9451000C9459000C940000C7
S1130080E0E8F0E0808182688083E1E8F0E080814C
S11300908A6180838AE090E0909387008093860051
S11300A0089584B1826084B90E94400080E090E0A9
S10900B00895F894FFCF4F
S9030000FC
