:100000000C9434000C943E000C943E000C943E0082
:100010000C943E000C943E000C943E000C943E0068
:100020000C943E000C943E000C943E000C943E0058
:100030000C943E000C943E000C943E000C943E0048
:100040000C943E000C943E000C943E000C943E0038
:100050000C943E000C943E000C943E000C943E0028
:100060000C943E000C943E0011241FBECFEFD8E04C
:10007000DEBFCDBF0E947B000C94B1000C94000049
:1000800085B18F7E85B985B18D7F85B985B18E7D2E
:1000900085B985B1886085B92FEF37EA81E62150AF
:1000A00030408040E1F700C0000088B1806288B92C
:1000B00094E525E835E481E09150204030408040CF
:1000C000D9F700C000C0000085B1877F85B988B12D
:1000D0008F7D88B9089585B1877F85B988B1877F7D
:1000E00088B985B1816285B985B1806185B985B1ED
:1000F000826085B9089584B18B6384B987B18862C1
:1001000087B9309B0E944000319B13C085B1877F27
:1001100085B988B1877F88B985B1806185B985B196
:10012000826085B985B1816085B985B18F7D85B9DA
:10013000E8CF1A9B13C085B1877F85B988B1877FC7
:1001400088B985B1806185B985B1826085B985B18D
:100150008E7F85B985B1806285B9D3CF0E946B004F
:06016000D0CFF894FFCFA0
:00000001FF
