:100000000C9434000C943E000C943E000C943E0082
:100010000C943E000C943E000C943E000C943E0068
:100020000C943E000C943E000C943E000C943E0058
:100030000C943E000C943E000C943E000C943E0048
:100040000C943E000C943E000C943E000C943E0038
:100050000C943E000C943E000C943E000C943E0028
:100060000C943E000C943E0011241FBECFEFD8E04C
:10007000DEBFCDBF0E9449000C945B000C940000D1
:1000800016BC81E085BDA89BFECF14BC81E085BB7A
:10009000089587E084B987E085B90E94400086E032
:1000A00085B90E94400084E085B90E94400015B8DF
:0A00B0000E944000F0CFF894FFCF4B
:00000001FF
