S00F00005461736B5F30312E73726563C2
S11300000C9434000C943E000C943E000C943E007E
S11300100C943E000C943E000C943E000C943E0064
S11300200C943E000C943E000C943E000C943E0054
S11300300C943E000C943E000C943E000C943E0044
S11300400C943E000C943E000C943E000C943E0034
S11300500C943E000C943E000C943E000C943E0024
S11300600C943E000C943E0011241FBECFEFD8E048
S1130070DEBFCDBF0E9440000C9470000C940000C1
S11300808FEF8AB981E08BB92AEA36EE86E991E0EE
S11300902150304080409040D9F700001BB82FEF2A
S11300A03FE483EC215030408040E1F700C0000081
S11300B082E08BB99AEA26EE36E981E0915020403D
S11300C030408040D9F7000083E08BB99FEF2FE4E4
S11300D033EC915020403040E1F700C00000D2CF13
S10700E0F894FFCFBE
S9030000FC
